{
  "contractName": "StarNotary",
  "abi": [
    {
      "constant": true,
      "inputs": [
        {
          "name": "interfaceId",
          "type": "bytes4"
        }
      ],
      "name": "supportsInterface",
      "outputs": [
        {
          "name": "",
          "type": "bool"
        }
      ],
      "payable": false,
      "stateMutability": "view",
      "type": "function"
    },
    {
      "constant": true,
      "inputs": [
        {
          "name": "",
          "type": "uint256"
        }
      ],
      "name": "tokenToStarInfo",
      "outputs": [
        {
          "name": "name",
          "type": "string"
        },
        {
          "name": "ra",
          "type": "string"
        },
        {
          "name": "dec",
          "type": "string"
        },
        {
          "name": "mag",
          "type": "string"
        },
        {
          "name": "cent",
          "type": "string"
        },
        {
          "name": "story",
          "type": "string"
        }
      ],
      "payable": false,
      "stateMutability": "view",
      "type": "function"
    },
    {
      "constant": true,
      "inputs": [
        {
          "name": "tokenId",
          "type": "uint256"
        }
      ],
      "name": "getApproved",
      "outputs": [
        {
          "name": "",
          "type": "address"
        }
      ],
      "payable": false,
      "stateMutability": "view",
      "type": "function"
    },
    {
      "constant": false,
      "inputs": [
        {
          "name": "to",
          "type": "address"
        },
        {
          "name": "tokenId",
          "type": "uint256"
        }
      ],
      "name": "approve",
      "outputs": [],
      "payable": false,
      "stateMutability": "nonpayable",
      "type": "function"
    },
    {
      "constant": true,
      "inputs": [
        {
          "name": "",
          "type": "bytes32"
        }
      ],
      "name": "allTokenKeys",
      "outputs": [
        {
          "name": "",
          "type": "bool"
        }
      ],
      "payable": false,
      "stateMutability": "view",
      "type": "function"
    },
    {
      "constant": false,
      "inputs": [
        {
          "name": "from",
          "type": "address"
        },
        {
          "name": "to",
          "type": "address"
        },
        {
          "name": "tokenId",
          "type": "uint256"
        }
      ],
      "name": "transferFrom",
      "outputs": [],
      "payable": false,
      "stateMutability": "nonpayable",
      "type": "function"
    },
    {
      "constant": false,
      "inputs": [
        {
          "name": "from",
          "type": "address"
        },
        {
          "name": "to",
          "type": "address"
        },
        {
          "name": "tokenId",
          "type": "uint256"
        }
      ],
      "name": "safeTransferFrom",
      "outputs": [],
      "payable": false,
      "stateMutability": "nonpayable",
      "type": "function"
    },
    {
      "constant": true,
      "inputs": [
        {
          "name": "tokenId",
          "type": "uint256"
        }
      ],
      "name": "ownerOf",
      "outputs": [
        {
          "name": "",
          "type": "address"
        }
      ],
      "payable": false,
      "stateMutability": "view",
      "type": "function"
    },
    {
      "constant": true,
      "inputs": [
        {
          "name": "owner",
          "type": "address"
        }
      ],
      "name": "balanceOf",
      "outputs": [
        {
          "name": "",
          "type": "uint256"
        }
      ],
      "payable": false,
      "stateMutability": "view",
      "type": "function"
    },
    {
      "constant": true,
      "inputs": [
        {
          "name": "",
          "type": "uint256"
        }
      ],
      "name": "starTokensForSale",
      "outputs": [
        {
          "name": "",
          "type": "uint256"
        }
      ],
      "payable": false,
      "stateMutability": "view",
      "type": "function"
    },
    {
      "constant": false,
      "inputs": [
        {
          "name": "to",
          "type": "address"
        },
        {
          "name": "approved",
          "type": "bool"
        }
      ],
      "name": "setApprovalForAll",
      "outputs": [],
      "payable": false,
      "stateMutability": "nonpayable",
      "type": "function"
    },
    {
      "constant": false,
      "inputs": [
        {
          "name": "from",
          "type": "address"
        },
        {
          "name": "to",
          "type": "address"
        },
        {
          "name": "tokenId",
          "type": "uint256"
        },
        {
          "name": "_data",
          "type": "bytes"
        }
      ],
      "name": "safeTransferFrom",
      "outputs": [],
      "payable": false,
      "stateMutability": "nonpayable",
      "type": "function"
    },
    {
      "constant": true,
      "inputs": [
        {
          "name": "owner",
          "type": "address"
        },
        {
          "name": "operator",
          "type": "address"
        }
      ],
      "name": "isApprovedForAll",
      "outputs": [
        {
          "name": "",
          "type": "bool"
        }
      ],
      "payable": false,
      "stateMutability": "view",
      "type": "function"
    },
    {
      "anonymous": false,
      "inputs": [
        {
          "indexed": true,
          "name": "from",
          "type": "address"
        },
        {
          "indexed": true,
          "name": "to",
          "type": "address"
        },
        {
          "indexed": true,
          "name": "tokenId",
          "type": "uint256"
        }
      ],
      "name": "Transfer",
      "type": "event"
    },
    {
      "anonymous": false,
      "inputs": [
        {
          "indexed": true,
          "name": "owner",
          "type": "address"
        },
        {
          "indexed": true,
          "name": "approved",
          "type": "address"
        },
        {
          "indexed": true,
          "name": "tokenId",
          "type": "uint256"
        }
      ],
      "name": "Approval",
      "type": "event"
    },
    {
      "anonymous": false,
      "inputs": [
        {
          "indexed": true,
          "name": "owner",
          "type": "address"
        },
        {
          "indexed": true,
          "name": "operator",
          "type": "address"
        },
        {
          "indexed": false,
          "name": "approved",
          "type": "bool"
        }
      ],
      "name": "ApprovalForAll",
      "type": "event"
    },
    {
      "constant": false,
      "inputs": [
        {
          "name": "_name",
          "type": "string"
        },
        {
          "name": "_ra",
          "type": "string"
        },
        {
          "name": "_dec",
          "type": "string"
        },
        {
          "name": "_mag",
          "type": "string"
        },
        {
          "name": "_cent",
          "type": "string"
        },
        {
          "name": "_story",
          "type": "string"
        },
        {
          "name": "_tokenId",
          "type": "uint256"
        }
      ],
      "name": "createStar",
      "outputs": [],
      "payable": false,
      "stateMutability": "nonpayable",
      "type": "function"
    },
    {
      "constant": false,
      "inputs": [
        {
          "name": "_tokenId",
          "type": "uint256"
        },
        {
          "name": "_price",
          "type": "uint256"
        }
      ],
      "name": "putStarUpForSale",
      "outputs": [],
      "payable": false,
      "stateMutability": "nonpayable",
      "type": "function"
    },
    {
      "constant": false,
      "inputs": [
        {
          "name": "_tokenId",
          "type": "uint256"
        }
      ],
      "name": "buyStar",
      "outputs": [],
      "payable": true,
      "stateMutability": "payable",
      "type": "function"
    },
    {
      "constant": true,
      "inputs": [],
      "name": "starsForSale",
      "outputs": [
        {
          "name": "",
          "type": "uint256[]"
        }
      ],
      "payable": false,
      "stateMutability": "view",
      "type": "function"
    },
    {
      "constant": true,
      "inputs": [
        {
          "name": "_tokenId",
          "type": "uint256"
        }
      ],
      "name": "tokenIdToStarInfo",
      "outputs": [
        {
          "name": "name",
          "type": "string"
        },
        {
          "name": "story",
          "type": "string"
        },
        {
          "name": "ra",
          "type": "string"
        },
        {
          "name": "dec",
          "type": "string"
        },
        {
          "name": "mag",
          "type": "string"
        }
      ],
      "payable": false,
      "stateMutability": "view",
      "type": "function"
    }
  ],
  "bytecode": "0x6080604052620000416301ffc9a77c01000000000000000000000000000000000000000000000000000000000262000084640100000000026401000000009004565b6200007e6380ac58cd7c01000000000000000000000000000000000000000000000000000000000262000084640100000000026401000000009004565b62000142565b63ffffffff7c010000000000000000000000000000000000000000000000000000000002817bffffffffffffffffffffffffffffffffffffffffffffffffffffffff191614151515620000d657600080fd5b6001600080837bffffffffffffffffffffffffffffffffffffffffffffffffffffffff19167bffffffffffffffffffffffffffffffffffffffffffffffffffffffff1916815260200190815260200160002060006101000a81548160ff02191690831515021790555050565b612fe180620001526000396000f3006080604052600436106100fc576000357c0100000000000000000000000000000000000000000000000000000000900463ffffffff16806301ffc9a7146101015780630282348914610165578063081812fc14610427578063095ea7b3146104945780631967fd98146104e1578063218791cf1461073757806323b872dd14610780578063244bbc5c146107ed5780632f1c34ef146109be578063316a4361146109de57806342842e0e14610a15578063613883e314610a825780636352211e14610aee57806370a0823114610b5b57806385d29bb714610bb2578063a22cb46514610bf3578063b88d4fde14610c42578063e985e9c514610cf5575b600080fd5b34801561010d57600080fd5b5061014b60048036038101908080357bffffffffffffffffffffffffffffffffffffffffffffffffffffffff19169060200190929190505050610d70565b604051808215151515815260200191505060405180910390f35b34801561017157600080fd5b5061019060048036038101908080359060200190929190505050610dd7565b6040518080602001806020018060200180602001806020018060200187810387528d818151815260200191508051906020019080838360005b838110156101e45780820151818401526020810190506101c9565b50505050905090810190601f1680156102115780820380516001836020036101000a031916815260200191505b5087810386528c818151815260200191508051906020019080838360005b8381101561024a57808201518184015260208101905061022f565b50505050905090810190601f1680156102775780820380516001836020036101000a031916815260200191505b5087810385528b818151815260200191508051906020019080838360005b838110156102b0578082015181840152602081019050610295565b50505050905090810190601f1680156102dd5780820380516001836020036101000a031916815260200191505b5087810384528a818151815260200191508051906020019080838360005b838110156103165780820151818401526020810190506102fb565b50505050905090810190601f1680156103435780820380516001836020036101000a031916815260200191505b50878103835289818151815260200191508051906020019080838360005b8381101561037c578082015181840152602081019050610361565b50505050905090810190601f1680156103a95780820380516001836020036101000a031916815260200191505b50878103825288818151815260200191508051906020019080838360005b838110156103e25780820151818401526020810190506103c7565b50505050905090810190601f16801561040f5780820380516001836020036101000a031916815260200191505b509c5050505050505050505050505060405180910390f35b34801561043357600080fd5b50610452600480360381019080803590602001909291905050506111a3565b604051808273ffffffffffffffffffffffffffffffffffffffff1673ffffffffffffffffffffffffffffffffffffffff16815260200191505060405180910390f35b3480156104a057600080fd5b506104df600480360381019080803573ffffffffffffffffffffffffffffffffffffffff169060200190929190803590602001909291905050506111f4565b005b3480156104ed57600080fd5b5061050c60048036038101908080359060200190929190505050611339565b60405180806020018060200180602001806020018060200186810386528b818151815260200191508051906020019080838360005b8381101561055c578082015181840152602081019050610541565b50505050905090810190601f1680156105895780820380516001836020036101000a031916815260200191505b5086810385528a818151815260200191508051906020019080838360005b838110156105c25780820151818401526020810190506105a7565b50505050905090810190601f1680156105ef5780820380516001836020036101000a031916815260200191505b50868103845289818151815260200191508051906020019080838360005b8381101561062857808201518184015260208101905061060d565b50505050905090810190601f1680156106555780820380516001836020036101000a031916815260200191505b50868103835288818151815260200191508051906020019080838360005b8381101561068e578082015181840152602081019050610673565b50505050905090810190601f1680156106bb5780820380516001836020036101000a031916815260200191505b50868103825287818151815260200191508051906020019080838360005b838110156106f45780820151818401526020810190506106d9565b50505050905090810190601f1680156107215780820380516001836020036101000a031916815260200191505b509a505050505050505050505060405180910390f35b34801561074357600080fd5b5061076660048036038101908080356000191690602001909291905050506119a6565b604051808215151515815260200191505060405180910390f35b34801561078c57600080fd5b506107eb600480360381019080803573ffffffffffffffffffffffffffffffffffffffff169060200190929190803573ffffffffffffffffffffffffffffffffffffffff169060200190929190803590602001909291905050506119c6565b005b3480156107f957600080fd5b506109bc600480360381019080803590602001908201803590602001908080601f0160208091040260200160405190810160405280939291908181526020018383808284378201915050505050509192919290803590602001908201803590602001908080601f0160208091040260200160405190810160405280939291908181526020018383808284378201915050505050509192919290803590602001908201803590602001908080601f0160208091040260200160405190810160405280939291908181526020018383808284378201915050505050509192919290803590602001908201803590602001908080601f0160208091040260200160405190810160405280939291908181526020018383808284378201915050505050509192919290803590602001908201803590602001908080601f0160208091040260200160405190810160405280939291908181526020018383808284378201915050505050509192919290803590602001908201803590602001908080601f016020809104026020016040519081016040528093929190818152602001838380828437820191505050505050919291929080359060200190929190505050611a95565b005b6109dc60048036038101908080359060200190929190505050611e6b565b005b3480156109ea57600080fd5b50610a13600480360381019080803590602001909291908035906020019092919050505061208d565b005b348015610a2157600080fd5b50610a80600480360381019080803573ffffffffffffffffffffffffffffffffffffffff169060200190929190803573ffffffffffffffffffffffffffffffffffffffff1690602001909291908035906020019092919050505061215f565b005b348015610a8e57600080fd5b50610a97612180565b6040518080602001828103825283818151815260200191508051906020019060200280838360005b83811015610ada578082015181840152602081019050610abf565b505050509050019250505060405180910390f35b348015610afa57600080fd5b50610b196004803603810190808035906020019092919050505061226b565b604051808273ffffffffffffffffffffffffffffffffffffffff1673ffffffffffffffffffffffffffffffffffffffff16815260200191505060405180910390f35b348015610b6757600080fd5b50610b9c600480360381019080803573ffffffffffffffffffffffffffffffffffffffff1690602001909291905050506122e9565b6040518082815260200191505060405180910390f35b348015610bbe57600080fd5b50610bdd6004803603810190808035906020019092919050505061236d565b6040518082815260200191505060405180910390f35b348015610bff57600080fd5b50610c40600480360381019080803573ffffffffffffffffffffffffffffffffffffffff169060200190929190803515159060200190929190505050612385565b005b348015610c4e57600080fd5b50610cf3600480360381019080803573ffffffffffffffffffffffffffffffffffffffff169060200190929190803573ffffffffffffffffffffffffffffffffffffffff16906020019092919080359060200190929190803590602001908201803590602001908080601f01602080910402602001604051908101604052809392919081815260200183838082843782019150505050505091929192905050506124c1565b005b348015610d0157600080fd5b50610d56600480360381019080803573ffffffffffffffffffffffffffffffffffffffff169060200190929190803573ffffffffffffffffffffffffffffffffffffffff1690602001909291905050506124e9565b604051808215151515815260200191505060405180910390f35b6000806000837bffffffffffffffffffffffffffffffffffffffffffffffffffffffff19167bffffffffffffffffffffffffffffffffffffffffffffffffffffffff1916815260200190815260200160002060009054906101000a900460ff169050919050565b6005602052806000526040600020600091509050806000018054600181600116156101000203166002900480601f016020809104026020016040519081016040528092919081815260200182805460018160011615610100020316600290048015610e835780601f10610e5857610100808354040283529160200191610e83565b820191906000526020600020905b815481529060010190602001808311610e6657829003601f168201915b505050505090806001018054600181600116156101000203166002900480601f016020809104026020016040519081016040528092919081815260200182805460018160011615610100020316600290048015610f215780601f10610ef657610100808354040283529160200191610f21565b820191906000526020600020905b815481529060010190602001808311610f0457829003601f168201915b505050505090806002018054600181600116156101000203166002900480601f016020809104026020016040519081016040528092919081815260200182805460018160011615610100020316600290048015610fbf5780601f10610f9457610100808354040283529160200191610fbf565b820191906000526020600020905b815481529060010190602001808311610fa257829003601f168201915b505050505090806003018054600181600116156101000203166002900480601f01602080910402602001604051908101604052809291908181526020018280546001816001161561010002031660029004801561105d5780601f106110325761010080835404028352916020019161105d565b820191906000526020600020905b81548152906001019060200180831161104057829003601f168201915b505050505090806004018054600181600116156101000203166002900480601f0160208091040260200160405190810160405280929190818152602001828054600181600116156101000203166002900480156110fb5780601f106110d0576101008083540402835291602001916110fb565b820191906000526020600020905b8154815290600101906020018083116110de57829003601f168201915b505050505090806005018054600181600116156101000203166002900480601f0160208091040260200160405190810160405280929190818152602001828054600181600116156101000203166002900480156111995780601f1061116e57610100808354040283529160200191611199565b820191906000526020600020905b81548152906001019060200180831161117c57829003601f168201915b5050505050905086565b60006111ae8261257d565b15156111b957600080fd5b6002600083815260200190815260200160002060009054906101000a900473ffffffffffffffffffffffffffffffffffffffff169050919050565b60006111ff8261226b565b90508073ffffffffffffffffffffffffffffffffffffffff168373ffffffffffffffffffffffffffffffffffffffff161415151561123c57600080fd5b8073ffffffffffffffffffffffffffffffffffffffff163373ffffffffffffffffffffffffffffffffffffffff16148061127c575061127b81336124e9565b5b151561128757600080fd5b826002600084815260200190815260200160002060006101000a81548173ffffffffffffffffffffffffffffffffffffffff021916908373ffffffffffffffffffffffffffffffffffffffff160217905550818373ffffffffffffffffffffffffffffffffffffffff168273ffffffffffffffffffffffffffffffffffffffff167f8c5be1e5ebec7d5bd14f71427d1e84f3dd0314c0f7b2291e5b200ac8c7c3b92560405160405180910390a4505050565b6060806060806060611349612ed9565b6000871115156113c1576040517f08c379a000000000000000000000000000000000000000000000000000000000815260040180806020018281038252600d8152602001807f496e76616c696420746f6b656e0000000000000000000000000000000000000081525060200191505060405180910390fd5b6005600088815260200190815260200160002060c06040519081016040529081600082018054600181600116156101000203166002900480601f0160208091040260200160405190810160405280929190818152602001828054600181600116156101000203166002900480156114795780601f1061144e57610100808354040283529160200191611479565b820191906000526020600020905b81548152906001019060200180831161145c57829003601f168201915b50505050508152602001600182018054600181600116156101000203166002900480601f01602080910402602001604051908101604052809291908181526020018280546001816001161561010002031660029004801561151b5780601f106114f05761010080835404028352916020019161151b565b820191906000526020600020905b8154815290600101906020018083116114fe57829003601f168201915b50505050508152602001600282018054600181600116156101000203166002900480601f0160208091040260200160405190810160405280929190818152602001828054600181600116156101000203166002900480156115bd5780601f10611592576101008083540402835291602001916115bd565b820191906000526020600020905b8154815290600101906020018083116115a057829003601f168201915b50505050508152602001600382018054600181600116156101000203166002900480601f01602080910402602001604051908101604052809291908181526020018280546001816001161561010002031660029004801561165f5780601f106116345761010080835404028352916020019161165f565b820191906000526020600020905b81548152906001019060200180831161164257829003601f168201915b50505050508152602001600482018054600181600116156101000203166002900480601f0160208091040260200160405190810160405280929190818152602001828054600181600116156101000203166002900480156117015780601f106116d657610100808354040283529160200191611701565b820191906000526020600020905b8154815290600101906020018083116116e457829003601f168201915b50505050508152602001600582018054600181600116156101000203166002900480601f0160208091040260200160405190810160405280929190818152602001828054600181600116156101000203166002900480156117a35780601f10611778576101008083540402835291602001916117a3565b820191906000526020600020905b81548152906001019060200180831161178657829003601f168201915b505050505081525050905080600001518160a00151826020015160405160200180807f72615f000000000000000000000000000000000000000000000000000000000081525060030182805190602001908083835b60208310151561181d57805182526020820191506020810190506020830392506117f8565b6001836020036101000a038019825116818451168082178552505050505050905001915050604051602081830303815290604052836040015160405160200180807f6465635f0000000000000000000000000000000000000000000000000000000081525060040182805190602001908083835b6020831015156118b65780518252602082019150602081019050602083039250611891565b6001836020036101000a038019825116818451168082178552505050505050905001915050604051602081830303815290604052846060015160405160200180807f6d61675f0000000000000000000000000000000000000000000000000000000081525060040182805190602001908083835b60208310151561194f578051825260208201915060208101905060208303925061192a565b6001836020036101000a038019825116818451168082178552505050505050905001915050604051602081830303815290604052849450839350829250819150809050955095509550955095505091939590929450565b60066020528060005260406000206000915054906101000a900460ff1681565b6119d033826125ef565b15156119db57600080fd5b600073ffffffffffffffffffffffffffffffffffffffff168273ffffffffffffffffffffffffffffffffffffffff1614151515611a1757600080fd5b611a218382612684565b611a2b8382612787565b611a3582826128b6565b808273ffffffffffffffffffffffffffffffffffffffff168473ffffffffffffffffffffffffffffffffffffffff167fddf252ad1be2c89b69c2b068fc378daa952ba7f163c4a11628f55a4df523b3ef60405160405180910390a4505050565b611a9d612ed9565b60008651118015611aaf575060008551115b8015611abc575060008451115b1515611b30576040517f08c379a00000000000000000000000000000000000000000000000000000000081526004018080602001828103825260148152602001807f496e76616c696420696e70757420706172616d7300000000000000000000000081525060200191505060405180910390fd5b60001515611b3f878787612a10565b1515141515611bb6576040517f08c379a00000000000000000000000000000000000000000000000000000000081526004018080602001828103825260148152602001807f5374617220616c7265616479206578697374732e00000000000000000000000081525060200191505060405180910390fd5b60c06040519081016040528089815260200188815260200187815260200186815260200185815260200184815250905080600560008481526020019081526020016000206000820151816000019080519060200190611c16929190612f10565b506020820151816001019080519060200190611c33929190612f10565b506040820151816002019080519060200190611c50929190612f10565b506060820151816003019080519060200190611c6d929190612f10565b506080820151816004019080519060200190611c8a929190612f10565b5060a0820151816005019080519060200190611ca7929190612f10565b50905050611cb53383612bbc565b6001600660008888886040516020018084805190602001908083835b602083101515611cf65780518252602082019150602081019050602083039250611cd1565b6001836020036101000a03801982511681845116808217855250505050505090500183805190602001908083835b602083101515611d495780518252602082019150602081019050602083039250611d24565b6001836020036101000a03801982511681845116808217855250505050505090500182805190602001908083835b602083101515611d9c5780518252602082019150602081019050602083039250611d77565b6001836020036101000a03801982511681845116808217855250505050505090500193505050506040516020818303038152906040526040518082805190602001908083835b602083101515611e075780518252602082019150602081019050602083039250611de2565b6001836020036101000a03801982511681845116808217855250505050505090500191505060405180910390206000191660001916815260200190815260200160002060006101000a81548160ff0219169083151502179055505050505050505050565b60008060006007600085815260200190815260200160002054111515611ef9576040517f08c379a00000000000000000000000000000000000000000000000000000000081526004018080602001828103825260178152602001807f4e6f207374617220697320757020666f722073616c652e00000000000000000081525060200191505060405180910390fd5b60076000848152602001908152602001600020549150611f188361226b565b9050813410151515611fb8576040517f08c379a00000000000000000000000000000000000000000000000000000000081526004018080602001828103825260248152602001807f5061796d656e7420697320696e73756666696369656e7420746f20627579207381526020017f7461722e0000000000000000000000000000000000000000000000000000000081525060400191505060405180910390fd5b611fc381338561215f565b8073ffffffffffffffffffffffffffffffffffffffff166108fc839081150290604051600060405180830381858888f19350505050158015612009573d6000803e3d6000fd5b508134111561205c573373ffffffffffffffffffffffffffffffffffffffff166108fc8334039081150290604051600060405180830381858888f1935050505015801561205a573d6000803e3d6000fd5b505b6000600760008581526020019081526020016000208190555060086000815480929190600190039190505550505050565b61209733836125ef565b1515612131576040517f08c379a00000000000000000000000000000000000000000000000000000000081526004018080602001828103825260358152602001807f4f6e6c79206f776e6572206f7220617070726f76656420757365722063616e2081526020017f707574207374617220757020666f722073616c652e000000000000000000000081525060400191505060405180910390fd5b8060076000848152602001908152602001600020819055506008600081548092919060010191905055505050565b61217b83838360206040519081016040528060008152506124c1565b505050565b6060806000806008541115612210576008546040519080825280602002602001820160405280156121c05781602001602082028038833980820191505090505b5091505b60085481101561220b57600760008281526020019081526020016000205482828151811015156121f057fe5b906020019060200201818152505080806001019150506121c4565b612263565b60016040519080825280602002602001820160405280156122405781602001602082028038833980820191505090505b509150600082600081518110151561225457fe5b90602001906020020181815250505b819250505090565b6000806001600084815260200190815260200160002060009054906101000a900473ffffffffffffffffffffffffffffffffffffffff169050600073ffffffffffffffffffffffffffffffffffffffff168173ffffffffffffffffffffffffffffffffffffffff16141515156122e057600080fd5b80915050919050565b60008073ffffffffffffffffffffffffffffffffffffffff168273ffffffffffffffffffffffffffffffffffffffff161415151561232657600080fd5b600360008373ffffffffffffffffffffffffffffffffffffffff1673ffffffffffffffffffffffffffffffffffffffff168152602001908152602001600020549050919050565b60076020528060005260406000206000915090505481565b3373ffffffffffffffffffffffffffffffffffffffff168273ffffffffffffffffffffffffffffffffffffffff16141515156123c057600080fd5b80600460003373ffffffffffffffffffffffffffffffffffffffff1673ffffffffffffffffffffffffffffffffffffffff16815260200190815260200160002060008473ffffffffffffffffffffffffffffffffffffffff1673ffffffffffffffffffffffffffffffffffffffff16815260200190815260200160002060006101000a81548160ff0219169083151502179055508173ffffffffffffffffffffffffffffffffffffffff163373ffffffffffffffffffffffffffffffffffffffff167f17307eab39ab6107e8899845ad3d59bd9653f200f220920489ca2b5937696c3183604051808215151515815260200191505060405180910390a35050565b6124cc8484846119c6565b6124d884848484612c62565b15156124e357600080fd5b50505050565b6000600460008473ffffffffffffffffffffffffffffffffffffffff1673ffffffffffffffffffffffffffffffffffffffff16815260200190815260200160002060008373ffffffffffffffffffffffffffffffffffffffff1673ffffffffffffffffffffffffffffffffffffffff16815260200190815260200160002060009054906101000a900460ff16905092915050565b6000806001600084815260200190815260200160002060009054906101000a900473ffffffffffffffffffffffffffffffffffffffff169050600073ffffffffffffffffffffffffffffffffffffffff168173ffffffffffffffffffffffffffffffffffffffff161415915050919050565b6000806125fb8361226b565b90508073ffffffffffffffffffffffffffffffffffffffff168473ffffffffffffffffffffffffffffffffffffffff16148061266a57508373ffffffffffffffffffffffffffffffffffffffff16612652846111a3565b73ffffffffffffffffffffffffffffffffffffffff16145b8061267b575061267a81856124e9565b5b91505092915050565b8173ffffffffffffffffffffffffffffffffffffffff166126a48261226b565b73ffffffffffffffffffffffffffffffffffffffff161415156126c657600080fd5b600073ffffffffffffffffffffffffffffffffffffffff166002600083815260200190815260200160002060009054906101000a900473ffffffffffffffffffffffffffffffffffffffff1673ffffffffffffffffffffffffffffffffffffffff161415156127835760006002600083815260200190815260200160002060006101000a81548173ffffffffffffffffffffffffffffffffffffffff021916908373ffffffffffffffffffffffffffffffffffffffff1602179055505b5050565b8173ffffffffffffffffffffffffffffffffffffffff166127a78261226b565b73ffffffffffffffffffffffffffffffffffffffff161415156127c957600080fd5b61281c6001600360008573ffffffffffffffffffffffffffffffffffffffff1673ffffffffffffffffffffffffffffffffffffffff16815260200190815260200160002054612e8490919063ffffffff16565b600360008473ffffffffffffffffffffffffffffffffffffffff1673ffffffffffffffffffffffffffffffffffffffff1681526020019081526020016000208190555060006001600083815260200190815260200160002060006101000a81548173ffffffffffffffffffffffffffffffffffffffff021916908373ffffffffffffffffffffffffffffffffffffffff1602179055505050565b600073ffffffffffffffffffffffffffffffffffffffff166001600083815260200190815260200160002060009054906101000a900473ffffffffffffffffffffffffffffffffffffffff1673ffffffffffffffffffffffffffffffffffffffff1614151561292457600080fd5b816001600083815260200190815260200160002060006101000a81548173ffffffffffffffffffffffffffffffffffffffff021916908373ffffffffffffffffffffffffffffffffffffffff1602179055506129c96001600360008573ffffffffffffffffffffffffffffffffffffffff1673ffffffffffffffffffffffffffffffffffffffff16815260200190815260200160002054612ea590919063ffffffff16565b600360008473ffffffffffffffffffffffffffffffffffffffff1673ffffffffffffffffffffffffffffffffffffffff168152602001908152602001600020819055505050565b6000600660008585856040516020018084805190602001908083835b602083101515612a515780518252602082019150602081019050602083039250612a2c565b6001836020036101000a03801982511681845116808217855250505050505090500183805190602001908083835b602083101515612aa45780518252602082019150602081019050602083039250612a7f565b6001836020036101000a03801982511681845116808217855250505050505090500182805190602001908083835b602083101515612af75780518252602082019150602081019050602083039250612ad2565b6001836020036101000a03801982511681845116808217855250505050505090500193505050506040516020818303038152906040526040518082805190602001908083835b602083101515612b625780518252602082019150602081019050602083039250612b3d565b6001836020036101000a03801982511681845116808217855250505050505090500191505060405180910390206000191660001916815260200190815260200160002060009054906101000a900460ff1690509392505050565b600073ffffffffffffffffffffffffffffffffffffffff168273ffffffffffffffffffffffffffffffffffffffff1614151515612bf857600080fd5b612c0282826128b6565b808273ffffffffffffffffffffffffffffffffffffffff16600073ffffffffffffffffffffffffffffffffffffffff167fddf252ad1be2c89b69c2b068fc378daa952ba7f163c4a11628f55a4df523b3ef60405160405180910390a45050565b600080612c848573ffffffffffffffffffffffffffffffffffffffff16612ec6565b1515612c935760019150612e7b565b8473ffffffffffffffffffffffffffffffffffffffff1663150b7a02338887876040518563ffffffff167c0100000000000000000000000000000000000000000000000000000000028152600401808573ffffffffffffffffffffffffffffffffffffffff1673ffffffffffffffffffffffffffffffffffffffff1681526020018473ffffffffffffffffffffffffffffffffffffffff1673ffffffffffffffffffffffffffffffffffffffff16815260200183815260200180602001828103825283818151815260200191508051906020019080838360005b83811015612d88578082015181840152602081019050612d6d565b50505050905090810190601f168015612db55780820380516001836020036101000a031916815260200191505b5095505050505050602060405180830381600087803b158015612dd757600080fd5b505af1158015612deb573d6000803e3d6000fd5b505050506040513d6020811015612e0157600080fd5b8101908080519060200190929190505050905063150b7a027c0100000000000000000000000000000000000000000000000000000000027bffffffffffffffffffffffffffffffffffffffffffffffffffffffff1916817bffffffffffffffffffffffffffffffffffffffffffffffffffffffff19161491505b50949350505050565b600080838311151515612e9657600080fd5b82840390508091505092915050565b6000808284019050838110151515612ebc57600080fd5b8091505092915050565b600080823b905060008111915050919050565b60c0604051908101604052806060815260200160608152602001606081526020016060815260200160608152602001606081525090565b828054600181600116156101000203166002900490600052602060002090601f016020900481019282601f10612f5157805160ff1916838001178555612f7f565b82800160010185558215612f7f579182015b82811115612f7e578251825591602001919060010190612f63565b5b509050612f8c9190612f90565b5090565b612fb291905b80821115612fae576000816000905550600101612f96565b5090565b905600a165627a7a72305820e5b37211fedec432afbd6be6cc25db4508bffce2f0c069f977d38b44abe769800029",
  "source": "pragma solidity ^0.4.24;\n\nimport \"openzeppelin-solidity/contracts/token/ERC721/ERC721.sol\";\n\ncontract StarNotary is ERC721 { \n\n    struct Star { \n        string name;\n        string ra;\n        string dec;\n        string mag;\n        string cent;\n        string story;\n    }\n\n    mapping(uint256 => Star) public tokenToStarInfo; \n    mapping(bytes32 => bool) public allTokenKeys; \n    mapping(uint256 => uint256) public starTokensForSale;\n    uint256 private idsForSaleQtd;\n\n    //Creates a star asset and an asssociated token\n    function createStar(string _name, string _ra, string _dec, string _mag, string _cent, string _story, uint256 _tokenId) public { \n        \n        //check required input data\n        require(bytes(_dec).length > 0 && bytes(_mag).length > 0 && bytes(_cent).length > 0, \"Invalid input params\");\n\n       //check if star already exists.\n        require(checkIfStarExist(_dec, _mag, _cent) == false, \"Star already exists.\");\n        \n        Star memory newStar = Star(_name, _ra, _dec, _mag, _cent, _story);\n\n        //Token -> Star\n        tokenToStarInfo[_tokenId] = newStar;\n\n        //Address\n        //Token -> Address (inside _mint())\n        //_tokenOwner\n        _mint(msg.sender, _tokenId);\n\n        //save a unique hash as key based on the star coordinates\n        //so we can check if a star has already been registered.\n        allTokenKeys[keccak256(abi.encodePacked(_dec, _mag, _cent))] = true;\n    }\n\n    //coordinates are dec + mag + cent, strictly in this order\n    //for generating a hash key with keccak256\n    function checkIfStarExist(string dec, string mag, string cent ) internal view returns (bool) {\n\n        return allTokenKeys[keccak256(abi.encodePacked(dec, mag, cent))];\n    }\n\n    //Owner or authorized user can put Star up for sale.\n    function putStarUpForSale(uint256 _tokenId, uint256 _price) public { \n        \n        require(_isApprovedOrOwner(msg.sender, _tokenId),  \"Only owner or approved user can put star up for sale.\");\n\n        starTokensForSale[_tokenId] = _price;\n        //update index\n        idsForSaleQtd++;\n    }\n\n    //An address needs to be approved to buy\n    function buyStar(uint256 _tokenId) public payable { \n        require(starTokensForSale[_tokenId] > 0, \"No star is up for sale.\");\n        \n        uint256 starCost = starTokensForSale[_tokenId];\n        address starOwner = ownerOf(_tokenId);\n\n        require(msg.value >= starCost, \"Payment is insufficient to buy star.\");\n\n        //validates if the buyer is approved\n        //and if the destination is not empty\n        //clear approval, transfer the token and emit \n        // the Transfer event\n        safeTransferFrom(starOwner, msg.sender, _tokenId);\n\n        //transfer payment to owner\n        starOwner.transfer(starCost);\n\n        //return change\n        if(msg.value > starCost) { \n            msg.sender.transfer(msg.value - starCost);\n        }\n\n        //star not up for sale anymore\n        starTokensForSale[_tokenId] = 0;\n        //update index\n        idsForSaleQtd--;\n    }\n\n    //\n    function starsForSale() external view returns(uint256[]){\n\n        uint256[] memory _starsForSale;\n\n        //not empty\n        if (idsForSaleQtd > 0){\n\n            //set fixed size\n            _starsForSale = new uint256[](idsForSaleQtd);\n\n            //mapping to array\n            for(uint256 i; i < idsForSaleQtd; i++ ){\n                _starsForSale[i] = starTokensForSale[i];\n            }\n        }\n        //empty mapping\n        else {\n            _starsForSale = new uint256[](1);\n            _starsForSale[0] = 0;\n        }\n\n        return _starsForSale;\n    }\n\n    //\n    function tokenIdToStarInfo(uint256 _tokenId) \n        external view returns(string name, string story, string ra, string dec, string mag){\n\n        require(_tokenId > 0, \"Invalid token\");\n\n        //get Star info\n        Star memory star = tokenToStarInfo[_tokenId];\n\n        return( star.name,\n            star.story,\n            string(abi.encodePacked(\"ra_\", star.ra)),\n            string(abi.encodePacked(\"dec_\", star.dec)),\n            string(abi.encodePacked(\"mag_\", star.mag)));\n\n    }   \n}",
  "sourcePath": "/Users/brunofrascino/Documents/Tutorial/Nanodegree/Blockchain/Projects/DNotaryService/dnotaryserviceZ/smart_contracts/contracts/StarNotary.sol",
  "compiler": {
    "name": "solc",
    "version": "0.4.24+commit.e67f0147.Emscripten.clang"
  },
  "schemaVersion": "2.0.1",
  "updatedAt": "2018-11-03T23:42:39.382Z"
}